{
  "contractName": "Mandate",
  "abi": [
    {
      "constant": true,
      "inputs": [],
      "name": "bankAccount",
      "outputs": [
        {
          "name": "",
          "type": "uint256"
        }
      ],
      "payable": false,
      "stateMutability": "view",
      "type": "function"
    },
    {
      "constant": true,
      "inputs": [],
      "name": "no_installments",
      "outputs": [
        {
          "name": "",
          "type": "uint256"
        }
      ],
      "payable": false,
      "stateMutability": "view",
      "type": "function"
    },
    {
      "constant": true,
      "inputs": [],
      "name": "dueDate",
      "outputs": [
        {
          "name": "",
          "type": "string"
        }
      ],
      "payable": false,
      "stateMutability": "view",
      "type": "function"
    },
    {
      "constant": true,
      "inputs": [],
      "name": "owner",
      "outputs": [
        {
          "name": "",
          "type": "address"
        }
      ],
      "payable": false,
      "stateMutability": "view",
      "type": "function"
    },
    {
      "constant": true,
      "inputs": [
        {
          "name": "",
          "type": "address"
        }
      ],
      "name": "wallet",
      "outputs": [
        {
          "name": "",
          "type": "uint256"
        }
      ],
      "payable": false,
      "stateMutability": "view",
      "type": "function"
    },
    {
      "constant": true,
      "inputs": [],
      "name": "totalPrice",
      "outputs": [
        {
          "name": "",
          "type": "uint256"
        }
      ],
      "payable": false,
      "stateMutability": "view",
      "type": "function"
    },
    {
      "inputs": [],
      "payable": false,
      "stateMutability": "nonpayable",
      "type": "constructor"
    },
    {
      "constant": false,
      "inputs": [
        {
          "name": "_bankAccount",
          "type": "uint256"
        }
      ],
      "name": "setBankAccount",
      "outputs": [],
      "payable": false,
      "stateMutability": "nonpayable",
      "type": "function"
    },
    {
      "constant": true,
      "inputs": [
        {
          "name": "_address",
          "type": "address"
        }
      ],
      "name": "getBankAccount",
      "outputs": [
        {
          "name": "",
          "type": "uint256"
        }
      ],
      "payable": false,
      "stateMutability": "view",
      "type": "function"
    },
    {
      "constant": true,
      "inputs": [
        {
          "name": "_totalPrice",
          "type": "uint256"
        },
        {
          "name": "_no_installments",
          "type": "uint256"
        }
      ],
      "name": "getInstallments",
      "outputs": [
        {
          "name": "",
          "type": "uint256"
        }
      ],
      "payable": false,
      "stateMutability": "view",
      "type": "function"
    }
  ],
  "bytecode": "0x608060405234801561001057600080fd5b5033600460006101000a81548173ffffffffffffffffffffffffffffffffffffffff021916908373ffffffffffffffffffffffffffffffffffffffff1602179055506104d26000819055506101f460018190555060056002819055506040805190810160405280600381526020017f312f310000000000000000000000000000000000000000000000000000000000815250600390805190602001906100b79291906100bd565b50610162565b828054600181600116156101000203166002900490600052602060002090601f016020900481019282601f106100fe57805160ff191683800117855561012c565b8280016001018555821561012c579182015b8281111561012b578251825591602001919060010190610110565b5b509050610139919061013d565b5090565b61015f91905b8082111561015b576000816000905550600101610143565b5090565b90565b61050e806101716000396000f300608060405260043610610099576000357c0100000000000000000000000000000000000000000000000000000000900463ffffffff1680632ff13dfc1461009e578063377a0f53146100f55780636c69cb0614610120578063786716fe1461014b5780638da5cb5b146101db578063a56cc43914610232578063ab0d92dd14610289578063b9c68f47146102b4578063cc03d9b3146102ff575b600080fd5b3480156100aa57600080fd5b506100df600480360381019080803573ffffffffffffffffffffffffffffffffffffffff16906020019092919050505061032c565b6040518082815260200191505060405180910390f35b34801561010157600080fd5b5061010a610375565b6040518082815260200191505060405180910390f35b34801561012c57600080fd5b5061013561037b565b6040518082815260200191505060405180910390f35b34801561015757600080fd5b50610160610381565b6040518080602001828103825283818151815260200191508051906020019080838360005b838110156101a0578082015181840152602081019050610185565b50505050905090810190601f1680156101cd5780820380516001836020036101000a031916815260200191505b509250505060405180910390f35b3480156101e757600080fd5b506101f061041f565b604051808273ffffffffffffffffffffffffffffffffffffffff1673ffffffffffffffffffffffffffffffffffffffff16815260200191505060405180910390f35b34801561023e57600080fd5b50610273600480360381019080803573ffffffffffffffffffffffffffffffffffffffff169060200190929190505050610445565b6040518082815260200191505060405180910390f35b34801561029557600080fd5b5061029e61045d565b6040518082815260200191505060405180910390f35b3480156102c057600080fd5b506102e96004803603810190808035906020019092919080359060200190929190505050610463565b6040518082815260200191505060405180910390f35b34801561030b57600080fd5b5061032a60048036038101908080359060200190929190505050610479565b005b6000600560008373ffffffffffffffffffffffffffffffffffffffff1673ffffffffffffffffffffffffffffffffffffffff168152602001908152602001600020549050919050565b60005481565b60025481565b60038054600181600116156101000203166002900480601f0160208091040260200160405190810160405280929190818152602001828054600181600116156101000203166002900480156104175780601f106103ec57610100808354040283529160200191610417565b820191906000526020600020905b8154815290600101906020018083116103fa57829003601f168201915b505050505081565b600460009054906101000a900473ffffffffffffffffffffffffffffffffffffffff1681565b60056020528060005260406000206000915090505481565b60015481565b6000818381151561047057fe5b04905092915050565b8060056000600460009054906101000a900473ffffffffffffffffffffffffffffffffffffffff1673ffffffffffffffffffffffffffffffffffffffff1673ffffffffffffffffffffffffffffffffffffffff16815260200190815260200160002081905550505600a165627a7a723058209880ac079d1c4528e7139b21596c3522f52d994e2c3ab5225f6cdf60e9b297ab0029",
  "source": "pragma solidity ^0.4.21;\n\ncontract Mandate {\n    \n    uint256 public bankAccount;\n    uint256 public totalPrice;\n    uint256 public no_installments;\n    string public dueDate;\n    address public owner;\n    \n    mapping (address => uint256) public wallet;\n    \n   constructor () public{\n        \n        owner = msg.sender;\n        bankAccount = 1234;\n        totalPrice = 500;\n        no_installments = 5;\n        dueDate = \"1/1\";\n        \n        \n        \n    }\n    \n    function setBankAccount(uint256 _bankAccount) public {\n        \n        wallet[owner] = _bankAccount;\n    }\n    \n    function getBankAccount(address _address) public constant returns(uint256){\n        \n        return wallet[_address];\n    }\n    \n    function getInstallments(uint256 _totalPrice, uint256 _no_installments) public constant returns (uint256){\n        \n        return (_totalPrice / _no_installments);\n    }\n}",
  "sourcePath": "/home/salam/mandate/contracts/Mandate.sol",
  "compiler": {
    "name": "solc",
    "version": "0.4.24+commit.e67f0147.Emscripten.clang"
  },
  "schemaVersion": "2.0.1",
  "updatedAt": "2018-09-02T11:59:08.252Z"
}